:040000008831EE292C
:1000080070082000A6007108A5007208A4007308F3
:10001800A3007408A2007508A1008031931E5A2815
:1000280001304907F00000304A3DF1007008C9006E
:100038007108CA0040304802031C582826001808D6
:10004800F5001908F300F4017308F100F0017008D5
:10005800F3007108F4007508F0040030F10470082A
:10006800F3007108F400700820004B07B100710814
:100078004C3DB20000304D3DB30000304E3DB40061
:10008800CB01CC01CD01CE017008CB027108CC3B6D
:100098000030CD3BCE3B4908C2004A08C300C90125
:1000A800CA01C8010130BD0093127028111C7028C4
:1000B800480AF0007008C8000030CB070030CC3D7B
:1000C8000130CD3D0030CE3D4808803C03186E28F5
:1000D8000230BD00111070282608F0002508F10034
:1000E8002408F2002308F3002208F4002108F50090
:0200F8000900FD
:1000FA00240014198A281F301605F1007108003AE5
:0E010A00031D8A280130F0008B28F001080048
:08011800FA1FF2130030080089
:10012000FB14FB1F9A28FF30F300F200F100F000EF
:08013000FA0DF20CFF3008008B
:100138002100AF01B0013008123C031DA5282F088B
:100148008E3C031CB1287D2070080319AC28B12807
:100158002100AF0A0319B00A9F282100123030028B
:10016800031DB8288F302F02031CBD287B30F000F8
:10017800C32824001614161CC228BF28F001080042
:100188002000911121002F0824009100141DCD2872
:10019800CA2820009119D128CD282400161BD6285A
:0C01A800F001D92816150230F000080004
:0601B400240016150800EE
:0E01BA00F201F101F001F801F301003008003C
:1001C8007B15FB1FEE280130F300F201F101F0016D
:0801D800FA0DF20CFF300800E3
:1001E0002000FA017308031D7A147708031DFA141E
:1001F0007A0803193B29033A031906297A180329B7
:10020000F61F39293729F21F372939297208803911
:10021000FA00F21376088039F6137A0603191429C6
:100220007A080319372939297708730203191B291A
:10023000031C2F2933297608720203192229031C73
:100240002F2933297508710203192929031C2F2925
:1002500033297408700203193B2903183329FA085B
:10026000031939293729FA080319372939290314B9
:0E02700008000310080003140315080008001E
:06027E00FB15FF30080033
:10028400A0017208031D57297108F2007008F100DB
:10029400F001A0157208031D57297108F200F1013D
:1002A400A01120167208031965292008F302031D02
:1002B400031C69290310F21B6D29F00DF10DF20DD9
:1002C400F30B5D2969290130FC00DD20702902301F
:0E02D400FC00E42070290430FC008C2008009F
:1002E2007C18A729FC1878297C19C6297129A00134
:1002F2007208031D98297108F2007008F10078084D
:10030200F000F801A0157208031D98297108F20087
:100312007008F100F001A01120167208031D98293F
:100322007108F200F101A01572080319BA29200818
:10033200F302031D031CBE290310F21BA729F80DAB
:10034200F00DF10DF20DF30B9E29BE297B1B701CE3
:10035200C229F81FC229F00A0319F10A0319F20A85
:10036200031DC229F20CF10CF00CF30A0319C62981
:10037200C2290130FC00DD20C9290230FC00E42042
:10038200C9290430FC008C20C9290830FC009020C7
:04039200000008005F
:100396009C207C302100AF00C4202100AF01C42086
:0E03A600803021002B04AF00C420DA200800B4
:1003B40024001413941321000E168E1538302400D3
:0403C4009500080098
:1003C8007408003A031DFD297508003A031DFD292C
:1003D8007608003A031DFD297708003A031DFD2918
:1003E800FF30F000FF30F1007F30F200FF30F30003
:1003F800972A2000770803198B2A730803198E2A75
:10040800720876068039FA00F217F617A00172080A
:10041800F8007108FC007008FD007408FD027508FA
:10042800031C750FFC027608031C760FF802F8010E
:10043800FC01FD01031C272A0310F20CF10CF00C3F
:10044800F80C0130A0007708F302031C312A7E3033
:100458002007F3070318912A362A7E302007F3076E
:10046800031C942A1830FA07FD0DFC0DF80DF00D49
:10047800F10DF20DA00D7408F0027508031C750F3C
:10048800F1027608031C760FF202760DA004201CF8
:100498004F2A7D145A2A7408F00775080318750F37
:1004A800F10776080318760AF2077D10FA031F3061
:1004B8007A05031D382A7B1B7D1C812A0310F00D49
:1004C800F10DF20DA00D7408F0027508031C750FEC
:1004D800F1027608031C760FF202760D200401392A
:1004E800FD070318FC0A0319F80A031D812AF80CF2
:1004F800FC0CFD0CF30A0319912AFA1FF81378086B
:10050800F2007C08F1007D08F0000030962A0130E6
:100518003F21962A0230DD20962A04309020962A20
:080528000830E4200000080087
:100530007B14FB1FA32AF201FA1FFF30F200F10027
:0A054000F000FA0DF20CFF30080085
:10054A0021002308F4002408F5007408F200750855
:10055A00F300F40A0319F50A2508F0002608F10049
:10056A00A50A0319A60A7008840071088500720892
:10057A0086007308870000088100720884007308E7
:10058A00850000080319CA2AAA2A2308F0002408A9
:04059A00F100080064
:10059E002000FB017308031D77080319252B720831
:1005AE007606FA007708F3077E30031CE22AF30280
:1005BE000318282BE52AF302031C2B2B7208F800D4
:1005CE007108FC007008FD00F817F6170310F20111
:1005DE00F101F0011830A0007D1CFF2A7408F0070D
:1005EE0075080318750FF10776080318760FF207D2
:1005FE00F20CF10CF00CF80CFC0CFD0C0310A00B23
:10060E00F32AF21B0F2BF80DF00DF10DF20DF30383
:10061E007B1B701C212BF81F212BF00A0319F10AEA
:10062E000319F20A031D212BF20CF10CF00CF30A44
:10063E000319282BFA1FF21300302D2B0130DD2069
:10064E002D2B023090202D2B0430E42000000800CA
:10065E00A3302100A9000030AA000330290784002E
:10066E0000302A3D850000082707F1000030283DA4
:10067E00F2007108A7007208A80080307206F00020
:10068E0080307002031D4D2B003071020318542B65
:10069E00F001F101F201F301962B8030F000803071
:1006AE0028067002031D5D2B2708FF3C0318852BBF
:1006BE00F401F501F601F7012308F0002408F1001A
:1006CE002508F2002608F300F02001300318003050
:1006DE00F000700803197C2BFF30F000FF30F100A2
:1006EE00FF30F200FF30F300962BFF30F000FF30AA
:1006FE00F1007F30F200FF30F300962B0330210023
:10070E002907860000302A3D87002708810023082C
:10071E00F0002408F1002508F2002608F300080076
:10072E00A330F4000030F50003307407840000306D
:10073E00753D85007E300002F000F1010030F13B86
:10074E00210027088600280887007008810071089C
:10075E00413181000330740786000030753D8700FB
:10076E007E3081002308F0002408F1002508F200F5
:06077E002608F30008004C
:10078400200073087706031DD42B72087606031D18
:10079400D42B71087506031DD42B70087406031935
:0A07A4000315080003110800080007
:1007AE00200072087606A000F801F901730877029E
:1007BE00031CF92B7708FD007308F7007D08F30082
:1007CE007608FD007208F6007D08F2007508FD003F
:1007DE007108F5007D08F1007408FD007008F40042
:1007EE007D08F00077080319722C7208FA00F217D0
:1007FE00F61777087302F70003192C2C08307702CE
:10080E00031C222CF7007408F9007508F400760812
:10081E00F500F60108307702031C222CF70074084D
:10082E00F9007508F400F50108307702031C222C3C
:10083E007A08F200722C770803192C2C0310F60C90
:10084E00F50CF40CF90CF70B252CA01F392CF9091B
:10085E00F409F509F609F90A0319F40A0319F50A58
:10086E000319F60A7908F80774080318740FF007CD
:10087E0075080318750FF10776080318760FF2073F
:10088E00A01B522C031C622CF20CF10CF00CF80C79
:10089E00F30F622C6E2C0318662CF809F009F1097F
:1008AE00F209F80A0319F00A0319F10A0319F20AF8
:1008BE008030FA066A2C0130FC007121742C023053
:1008CE00FC007121742C0430FC004221742C083081
:0E08DE00FC009020742C0030FC00000008008C
:1008EC002000F8010830FC00700DF80D7408F802B7
:1008FC000318822CF8070310F00DFC0B7A2C08005F
:10090C0020000E150A3024009200DA210230FB0080
:10091C000430FC00BA30FD00FD0B922CFC0B922C29
:10092C00FB0B922C00009C207C302100AF00C420DB
:10093C002100AF01C42038302100AF00C420DA20E0
:10094C009C207C302100AF00C4202100AF01C420CA
:10095C0038302100AF00C42039302100AF00C42052
:10096C0014302100AF00C42079302100AF00C42026
:10097C0050302100AF00C4206C302100AF00C420E7
:10098C000C302100AF00C42001302100AF00C42086
:10099C00DA200230FB000430FC00BA30FD00FD0B05
:1009AC00D52CFC0BD52CFB0BD52C00002100AB015E
:1009BC00CB219C207C302100AF00C4204030210092
:1009CC00AF00C42049302100AF00C4206E3021009C
:1009DC00AF00C42064302100AF00C420753021006A
:1009EC00AF00C42063302100AF00C420743021005C
:1009FC00AF00C42061302100AF00C4206E30210054
:100A0C00AF00C42063302100AF00C420653021004A
:100A1C00AF00C42020302100AF00C4204D30210095
:100A2C00AF00C42065302100AF00C4207430210019
:100A3C00AF00C42065302100AF00C420723021000B
:100A4C00AF00C420DA2040302100AB00CB219C2029
:100A5C007C302100AF00C42040302100AF00C42006
:100A6C0020302100AF00C42073302100AF00C4201F
:100A7C006F302100AF00C4206C302100AF00C420C7
:100A8C0064302100AF00C42065302100AF00C420C9
:100A9C0072302100AF00C4206E302100AF00C420A2
:100AAC0065302100AF00C42072302100AF00C4209B
:100ABC0064302100AF00C4202E302100AF00C420D0
:100ACC0063302100AF00C4206F302100AF00C42080
:100ADC006D302100AF00C42020302100AF00C420B5
:040AEC00DA20080004
:100AF00020007008F8007108F0007208F100730817
:100B0000F200F301FB01FC019E30F300FA01F21F39
:100B1000952DF809F009F109F209F80A0319F00A0C
:100B20000319F10A0319F20AFA170230FC007121C5
:020B30000800BB
:100B32002100A001A10120006408EC006508ED007D
:100B42006608EE006708EF006F08FF3A031DB32D39
:100B52006E08FF3A031DB32D6D08FF3A031DB32D36
:100B62006C08FF3A031DC42D68082100A300200071
:100B720069082100A4002730A5000030A600A522A4
:100B82000330F000E32F01302000EA00EE1FD82DE1
:100B920080306E06F0007008EE00EA0A68088600EF
:100BA200690887002D308100E80A0319E90A00303C
:100BB200F0006F06031DE72D70086E06031DE72D7A
:100BC20070086D06031DE72D6C08003A031DF72D12
:100BD20068082100A300200069082100A4002B302E
:100BE200A5000030A600A522F001E32F20006F0827
:100BF200FF3A031D062E6E08003A031D062E6D08ED
:100C0200003A031D062E6C08003A031D182E6808D0
:100C12002100A300200069082100A4002D30A500B6
:100C22000030A600A52220006A08F000E32F200071
:100C32000030F4000030F5000030F6007F30F7009D
:100C42006C08F0006D08F1006E08F2006F08F30006
:100C5200F020013003180030F000700803194D2E07
:100C62006C08F0006D08F1006E08F2006F08F300E6
:100C72000030F4000030F5002030F6008230F7003A
:100C8200CF227008EC007108ED007208EE007308C4
:100C9200EF002100A103182E0030F4000030F5000F
:100CA2002030F6008230F70020006C08F0006D085A
:100CB200F1006E08F2006F08F300F0200130031C0F
:100CC2000030F00070080319822E6C08F0006D08E5
:100CD200F1006E08F2006F08F300CD30F400CC3062
:100CE200F5004C30F6007B30F700CF227008EC00A4
:100CF2007108ED007208EE007308EF002100A10AEE
:100D02004D2EFF3020006C05F800FF306D05F90014
:100D12007F306E05FA0000306F05FB007808F400A2
:100D22007908F5007A08F6007B08F700F435F50D2E
:100D3200F60DF70D00306C05F00000306D05F10086
:100D420000306E05F200FF306F05F3007008EC0012
:100D52007108ED007208EE007308EF0074086C046D
:100D6200F00075086D04F10076086E04F200770851
:100D72006F04F3007008EC007108ED007208EE00D9
:100D82007308EF007F306F02F0007008EB00013053
:100D9200EF007008F4006C08F0006D08F1006E08B6
:100DA200F2006F08F30074080319DD2EF035F10D1F
:100DB200F20DF30DFF3ED52E20007008EC007108F5
:100DC200ED007208EE007308EF00680886006908FB
:100DD20087006F08303E8100E80A0319E90A803073
:100DE20021002106F0008030013A7002031C022F1C
:100DF2008030063AF000803021067002031C022F78
:100E02000F2F200068088600690887002E308100B5
:100E1200E80A0319E90A01302100A0000630200087
:100E2200EB006B08003A03196F2FEF016C08F0001A
:100E32006D08F1006E08F2006F08F300F035F10D55
:100E4200F20DF30DF035F10DF20DF30D6C08F00714
:100E52006D08F13D6E08F23D6F08F33D7008EC003D
:100E62007108ED007208EE007308EF006C08F000E4
:100E72006D08F1006E08F2006F08F300F035F10D15
:100E8200F20DF30D7008EC007108ED007208EE002F
:100E92007308EF0068088600690887006F08303E13
:100EA2008100E80A0319E90A21002008003A031D1B
:100EB2006C2FA1032108003A031D6C2F2000680843
:100EC2008600690887002E308100E80A0319E90AC2
:100ED20001302100A0002000EB03122FFF30680731
:100EE2008400FF30693D85000008303A031D7E2FE3
:100EF2000130E8020030E93B6F2FFF3068078400C1
:100F0200FF30693D850000082E3A031D8C2F013009
:100F1200E8020030E93B21002108003A0319DC2FE6
:100F22002000680886006908870065308100E80AA9
:100F32000319E90A803021002106F0008030003ACE
:100F420070020318B22F2000680886006908870023
:100F52002D308100E80A0319E90A21002108003C2A
:100F6200A10021082000EB0021002108093C031800
:100F7200CA2F0A30F40020006B08F00076246808BB
:100F82008600690887007008303E8100E80A03196C
:100F9200E90A20000A30F4006B08F0007624780891
:100FA200F00068088600690887007008303E8100FA
:100FB200E80A0319E90A2000680886006908870020
:060FC2008101F0010800AE
:100FC80020007008F8007108F000F101F201F30147
:100FD800FB01FC019630F300FA017008F100780873
:0A0FE800F000F801F20142210800B8
:0A0FF20020008030F606D723080027
:1010000020006408F4006508F5006608F60067082B
:10101000F700F001F101F201F3018031F020883195
:101020000130031C0030F000700803191C28F00187
:10103000F101F201F30126296408E8006508E900DE
:101040006608EA006708EB000030F4000030F500A5
:101050000030F6007F30F7006408F0006508F1000A
:101060006608F2006708F3008031F0208831013013
:1010700003180030F0007008031959286808F400BC
:101080006908F5006A08F6006B08F7000030F00008
:101090000030F1000030F2007F30F3008031E421B5
:1010A00088317008E8007108E9007208EA007308E6
:1010B000EB0068082100A300200069082100A400BB
:1010C00020006A082100A50020006B082100A6006E
:1010D000A130A7000030A800803197238831700824
:1010E0002000E8007108E9007208EA007308EB00CC
:1010F00070082100A3007108A4007208A5007308FD
:10110000A6002108A7002208A800A837A70C803154
:101110002F23883170082000E8007108E900720868
:10112000EA007308EB000030F4000030F5000030F6
:10113000F6007F30F7006408F0006508F1006608EB
:10114000F2006708F3008031F02088310130031885
:101150000030F00070080319C8286808F400690816
:10116000F5006A08F6006B08F7000030F000003068
:10117000F1000030F2007F30F3008031E42188314B
:101180007008E8007108E9007208EA007308EB00D3
:1011900014302100A00020006808F4006908F50060
:1011A0006A08F6006B08F7006408F0006508F100B3
:1011B0006608F2006708F3008031E421883168088E
:1011C000F4006908F5006A08F6006B08F700803142
:1011D000D72388310030F4000030F5000030F600ED
:1011E0008030F7008031E42188317008EC0071080C
:1011F000ED007208EE007308EF006808F40069085B
:10120000F5006A08F6006B08F7008031C2238831C8
:101210000130031D0030F0007008031910291D294A
:101220006C08E8006D08E9006E08EA006F08EB0042
:101230002100A0032008031DCB2820006808F0002F
:0E1240006908F1006A08F2006B08F30008006C
:10124E0012001E00F003031D2729F103031D272999
:02125E00080086
:101260002000C801C901CA01C201C301CB01CC01E0
:10127000CD01CE01B101B201B301B401BD01BE0186
:10128000BF01C001C101B501B601B701B8014930C4
:10129000B9001130BA007530BB007F30BC00C4010A
:1012A000C501C601C701113021008D0020008D014C
:1012B000183021008E0020008E0123008C018D014A
:1012C0008031862488314130200098000430260087
:1012D0009A0020009101013021009100200093012B
:0C12E000203021009300C0308B0008007B
:1012EC002000FB0173080319B2297208FA00F217E7
:1012FC008E30F302F31FB529F309F30A0830730299
:10130C00031C9829F300F10D7208F100F20108306A
:10131C007302031C9829F300F10DF1017308031DEE
:10132C000310A02973080319A0290310F20CF10C67
:10133C00F30B9B297B1B711CAA29031CAA29F10AFC
:10134C000319F20AF21BC129FA1FC429F209F10987
:10135C00F10A0319F20AC429F201F101C4297B1420
:10136C00FB1FC729F201FA1FC729FF30F200F10059
:10137C00FA0DF20CC7290130FC00C9290030FC0021
:10138C00C929FF30FC00FC080319CF2980319822B1
:0C139C0088317108F0007208F1000800B0
:1013A800803020006506F00080307002031DDE29C1
:1013B800003064020318E9296408003CF00065085D
:1013C800031C013EF101F102ED296408F0006508F3
:0413D800F100080018
:1013DC00FE2630211530FB004B30FC00BE30FD00EA
:1013EC00FD0BF629FC0BF629FB0BF629000020005F
:1013FC00BD013D08013A031DF22C4208F0004308E0
:10140C00F1008031E42788310030F4002430F500FD
:10141C007430F6009E30F7008031CF22883170088E
:10142C00E0007108E1007208E2007308E300310883
:10143C00F0003208F1003308F2003408F300803178
:10144C00782588317008F4007108F5007208F600F0
:10145C007308F7006008F0006108F1006208F20000
:10146C006308F3008031E42188317008BE007108F4
:10147C00BF007208C0007308C100DB30F4000F30ED
:10148C00F5004930F6008130F7008031CF228831E9
:10149C007008E0007108E1007208E2007308E300D4
:1014AC005F30E4007030E5000930E6006030E700A2
:1014BC0000206008F4006108F5006208F60063087B
:1014CC00F7008031CF2288317008B5007108B60062
:1014DC007208B7007308B8007008F4007108F500C2
:1014EC007208F6007308F7008031CF22883170083B
:1014FC00F4007108F5007208F6007308F70000306C
:10150C00F0002430F1007430F2009230F30080319E
:10151C00E42188317008B5007108B6007208B70074
:10152C007308B8000D09F100711EA42A3508B90022
:10153C003608BA003708BB003808BC000030F4008D
:10154C000030F5007A30F6008830F7003E08F000E5
:10155C003F08F1004008F2004108F3008031E4211B
:10156C0088317008E4007108E5007208E600730821
:10157C00E7005030E8000030E900803199258831CF
:10158C002100AB018031CB21883180319C20883106
:10159C007C302100AF008031C420883140302100E4
:1015AC00AF008031C420883146302100AF0080313B
:1015BC00C420883172302100AF008031C4208831C2
:1015CC0065302100AF008031C4208831713021009A
:1015DC00AF008031C42088313A302100AF00803117
:1015EC00C420883120302100AF008031C4208831E4
:1015FC002000CF0150308400003085004F08840754
:10160C000030CF1BFF30853D00080319282B80309C
:10161C004F06F0008030073A70020318282B503028
:10162C008400003085004F0884070030CF1BFF304A
:10163C00853D00082100AF008031C4208831200096
:10164C00CF0A002B6B302100AF008031C4208831D1
:10165C0048302100AF008031C42088317A3021001D
:10166C00AF008031C420883120302100AF008031A0
:10167C00C420883120302100AF008031C420883153
:10168C0020302100AF008031C4208831203021006F
:10169C00AF008031C42088318031DA2088312000BD
:1016AC003908F4003A08F5003B08F6003C08F7004E
:1016BC003508F0003608F1003708F2003808F3005E
:1016CC008031F92788317008C4007108C500720890
:1016DC00C6007308C70040302100AB008031CB211D
:1016EC00883120004408F0004508F1004608F2005B
:1016FC004708F30076217008E4007108E500D42156
:10170C0080307106F20080307202031D8F2B013085
:10171C00700203184A2C4408F0004508F1004608F2
:10172C00F2004708F3000030F4000030F5007A3086
:10173C00F6008830F7008031CF2288317008E40041
:10174C007108E5007208E6007308E7005030E80005
:10175C000030E90080319925883180319C20883116
:10176C007C302100AF008031C42088314030210012
:10177C00AF008031C420883149302100AF00803166
:10178C00C42088316E302100AF008031C4208831F4
:10179C0064302100AF008031C420883175302100C5
:1017AC00AF008031C420883163302100AF0080311C
:1017BC00C42088313A302100AF008031C4208831F8
:1017CC0020302100AF008031C42088312000CF01AF
:1017DC0050308400003085004F0884070030CF1B48
:1017EC00FF30853D00080319162C80304F06F000A1
:1017FC008030073A70020318162C503084000030E9
:10180C0085004F0884070030CF1BFF30853D000852
:10181C002100AF008031C42088312000CF0AEE2B8C
:10182C006E302100AF008031C42088314830210057
:10183C00AF008031C420883120302100AF008031CE
:10184C00C420883120302100AF008031C420883181
:10185C0020302100AF008031C4208831203021009D
:10186C00AF008031C420883120302100AF0080319E
:10187C00C420883120302100AF008031C420883151
:10188C008031DA208831F02C20004408E40045082F
:10189C00E5004608E6004708E7005030E800003055
:1018AC00E90080319925883180319C2088317C3049
:1018BC002100AF008031C420883140302100AF00BE
:1018CC008031C420883149302100AF008031C420E0
:1018DC0088316E302100AF008031C42088316430F3
:1018EC002100AF008031C420883175302100AF0059
:1018FC008031C420883163302100AF008031C42096
:10190C0088313A302100AF008031C420883120303A
:10191C002100AF008031C42088312000CF0150302D
:10192C008400003085004F0884070030CF1BFF3047
:10193C00853D00080319BD2C80304F06F000803027
:10194C00073A70020318BD2C50308400003085001B
:10195C004F0884070030CF1BFF30853D0008210065
:10196C00AF008031C42088312000CF0A952C75300F
:10197C002100AF008031C420883148302100AF00F5
:10198C008031C420883120302100AF008031C42048
:10199C00883120302100AF008031C42088312030C4
:1019AC002100AF008031C420883120302100AF00ED
:1019BC008031C420883120302100AF008031C42018
:1019CC00883120302100AF008031C4208831803133
:1019DC00DA2088312000BD013D08023A031DEE2EAD
:1019EC002100AB018031CB21883180319C208831A2
:1019FC007C302100AF008031C42088314030210080
:101A0C00AF008031C42088314E302100AF008031CE
:101A1C00C42088316F302100AF008031C420883160
:101A2C0074302100AF008031C42088312030210077
:101A3C00AF008031C420883172302100AF0080317A
:101A4C00C420883165302100AF008031C42088313A
:101A5C0073302100AF008031C42088316F302100F9
:101A6C00AF008031C42088316E302100AF0080314E
:101A7C00C420883161302100AF008031C42088310E
:101A8C0074302100AF008031C420883169302100CE
:101A9C00AF008031C42088316E302100AF0080311E
:101AAC00C420883167302100AF008031C4208831D8
:101ABC0020302100AF008031C4208831203021003B
:101ACC00AF008031C42088318031DA208831403039
:101ADC002100AB008031CB21883120003908F00087
:101AEC003A08F1003B08F2003C08F300762170083C
:101AFC00E4007108E500D42180307106F2008030DA
:101B0C007202031D8B2D013070020318462E39080A
:101B1C00F0003A08F1003B08F2003C08F3000030FA
:101B2C00F4000030F5007A30F6008830F700803190
:101B3C00CF2288317008E4007108E5007208E600D5
:101B4C007308E7005030E8000030E9008031992537
:101B5C00883180319C2088317C302100AF0080316D
:101B6C00C420883140302100AF008031C42088313E
:101B7C0043302100AF008031C42088316130210016
:101B8C00AF008031C42088316C302100AF0080312F
:101B9C00C420883169302100AF008031C4208831E5
:101BAC0062302100AF008031C42088313A302100EE
:101BBC00AF008031C420883120302100AF0080314B
:101BCC00C42088312000CF015030840000308500C3
:101BDC004F0884070030CF1BFF30853D00080319E8
:101BEC00122E80304F06F0008030073A7002031836
:101BFC00122E50308400003085004F0884070030CE
:101C0C00CF1BFF30853D00082100AF008031C42080
:101C1C0088312000CF0AEA2D6E302100AF008031D0
:101C2C00C420883148302100AF008031C420883175
:101C3C0020302100AF008031C420883120302100B9
:101C4C00AF008031C420883120302100AF008031BA
:101C5C00C420883120302100AF008031C42088316D
:101C6C0020302100AF008031C42088312030210089
:101C7C00AF008031C42088318031DA208831EC2EDD
:101C8C0020003908E4003A08E5003B08E6003C086F
:101C9C00E7005030E8000030E900803199258831A8
:101CAC0080319C2088317C302100AF008031C420F1
:101CBC00883140302100AF008031C420883143305E
:101CCC002100AF008031C420883161302100AF0089
:101CDC008031C42088316C302100AF008031C420A9
:101CEC00883169302100AF008031C42088316230E6
:101CFC002100AF008031C42088313A302100AF0080
:101D0C008031C420883120302100AF008031C420C4
:101D1C0088312000CF0150308400003085004F08FE
:101D2C0084070030CF1BFF30853D00080319B92E06
:101D3C0080304F06F0008030073A70020318B92E3D
:101D4C0050308400003085004F0884070030CF1BD2
:101D5C00FF30853D00082100AF008031C420883160
:101D6C002000CF0A912E75302100AF008031C420A5
:101D7C00883148302100AF008031C42088312030B8
:101D8C002100AF008031C420883120302100AF0009
:101D9C008031C420883120302100AF008031C42034
:101DAC00883120302100AF008031C42088312030B0
:101DBC002100AF008031C420883120302100AF00D9
:101DCC008031C42088318031DA2088312000BD0177
:041DDC00FF29EF2EBE
:101DFC00F33084008E3085000A30F0000130F100A1
:0C1E0C00273086000030870027210800E6
:081DE6004E3461344E34003428
:041DEE003034003459
:081DF20049344E34463400343C
:020000040001F9
:04000E00E23F331684
:00000001FF
